:020000040800F2
:1000000090050020C50000081917000851160008C7
:1000100000000000000000000000000000000000E0
:10002000000000000000000000000000851800082B
:1000300000000000000000001B17000887180008DF
:10004000D700000800000000D7000008D700000813
:10005000D7000008550B0008D7000008D70000089B
:1000600000000000D7000008D7000008D7000008F3
:10007000D7000008D7000008D700000800000000E3
:10008000D70000080000000000000000D7000008B2
:1000900000000000D7000008D7000008D7000008C3
:1000A00000000000D700000800000000D700000892
:1000B0000348854600F096FC00480047791E00087A
:1000C000900500200448804704480047FEE7FEE70B
:1000D000FEE7FEE7FEE7FEE7C9180008B1000008EA
:1000E00030B50B46014600202022012409E00D46D0
:1000F000D5409D4205D31D469540491B2546954058
:1001000040191546521E002DF1DC30BDF0B51FB46C
:100110000646002082B005464024019100901BE075
:10012000019922460F46304600F020F8049A059BBC
:10013000801A994110D310461946224600F08AFAD7
:10014000361A8F410197224601200021009F00F0BE
:1001500081FA38184D4100902046641E0028DFDCEB
:10016000019B00982946324607B0F0BD10B5202A01
:1001700004DB0846203AD040002110BD0B46D34096
:10018000D0402024A21A91400843194610BDD2B293
:1001900001E00270401C491EFBD270470022F6E7C6
:1001A00010B513460A4604461946FFF7F0FF2046ED
:1001B00010BDF8B502464A40D40F42004B00520829
:1001C0005B089A4202D20246084611464A0023D0F2
:1001D000C30D4A00DDB2120EAD1A202D35DA4902E8
:1001E0000126490AF6058A19002C00D05242202126
:1001F0004F1B1146B9402A411018C20D9A4221D016
:10020000002C17D0012D08DCDA05801AD20F8019D6
:10021000D207DBB200F036FAF8BDDA05801A012306
:1002200040001B06C01880185A428018CA0F10439D
:10023000490007E04908C2071143DA05801A80190E
:100240004008801800F016FAF8BD61000122511A2A
:10025000001BF7E70122D2075140AAE70122D2078B
:100260005040A6E7024670B54A40D30FDB07400076
:100270002DD04A002AD0010E140E000212020919D4
:10028000400A520A8418E50104465443000A120A3F
:100290002E045043A4194219200CC543AA18120C6D
:1002A0000125AD03521C521912047F39240400D0D9
:1002B000521C104301D44000491EC2B20C06C009B2
:1002C0002018401C4008802A02D003E0002070BDA6
:1002D00040084000002900DA0020184370BD70B5C6
:1002E00002464A40D50F40004A00ED074008520838
:1002F000002814D0002A12D0C40DD30D41020120D1
:10030000C0055202490A520AE41A091812187D342B
:10031000914201D3641C00E04900002C01DA002066
:1003200070BD0023914201D3891A0343400849005C
:100330000028F7D100290AD0914202D10121C90732
:1003400005E0914201D2012101E00121C943E0050C
:10035000C018401900F08EF970BD0000F0B51FB450
:1003600088B00B990998002448400999C00F4900AA
:1003700049080991C0070B990090490049080B9161
:1003800009990898A64608431CD00B990A98084377
:1003900018D0099801244000420D4800410D0998E9
:1003A00024050003000B204309900B980003000B69
:1003B00020430B9050181C4940180022019014460D
:1003C000104605E0002001460DB0F0BD032801DA1B
:1003D000034600E003239C46C11A0AAE0AE05F0010
:1003E00008ADED5B4F00F75B7D430027AA187C4109
:1003F000491C5B1E6145F2DD410004AB5A522104E9
:10040000120C0A43240C401C0828DFDB01980290E0
:100410000099704601910090059B049A07990698EF
:1004200000F076F9D0E700000DFCFFFFF0B50C46B8
:100430005C4085B0E40FE40703944C000026640898
:1004400059009446490802460296224321D062464A
:100450000A431ED06200570D4A000E032303550DB8
:10046000012402462C492405781B1B0B360B40182F
:1004700023432643614600901C46501AB44103D3DF
:100480000098401C009002E0921800985B41002800
:1004900003DA0020014605B0F0BD00200121090566
:1004A0000746864611E064461D46141BB54106D337
:1004B0006546521BB341744607430C43A646CD071D
:1004C00040084908284392185B4105460D43EAD18C
:1004D0001046184313D060461946504071400843F7
:1004E00006D06046101AB34106D20122002306E06E
:1004F00000220123DB0702E00122D24353100098BF
:1005000074460105381C6141029C039D0019694134
:1005100000F0F1F8BFE70000FD030000C217C10FB3
:10052000504010B54018CA079623002100F0AAF8E1
:1005300010BD10B500229623114600F0A3F810BD9F
:100540000EB505490291002100910A460B46019122
:1005500000F0DEF803B000BD3304000070B5CD0F2D
:100560004A0009030123090B1B0519430B4BED0737
:100570000024520D9A4201DA002070BD074B34333B
:100580009A4203DC9A1AFFF7F1FD02E00449511880
:1005900088402C43F1D0404270BD0000FF030000B2
:1005A000CDFBFFFF4A0009030123090B1B0519437B
:1005B000094B10B5520D9A4201DA002010BD064BCE
:1005C00034339A4203DC9A1AFFF7D0FD10BD034979
:1005D0005118884010BD0000FF030000CDFBFFFF55
:1005E000C20FD207400040080BD0C10D0723DB012A
:1005F000C91840020905400A1143C20840071143C7
:100600007047002001467047CB0FDB07490010B54B
:10061000490802460A4307D00A0D07240903E401EA
:10062000090B121B002A01DC002010BDC900440F79
:100630000C43C100E018D205801800F01BF810BD73
:100640000122D207002800DB101A002900DB511A12
:100650008842704710B5202A04DB0146203A9140B9
:10066000002010BD914020239C1A0346E34019430B
:10067000904010BD002904DA401C490001D1400817
:100680004000704770B40024050C05D1102400040C
:1006900002D1002921D01124050E01D10002083415
:1006A000050F01D10001241D850F01D18000A41C7C
:1006B000002801DB4000641C002908D020252E1BE7
:1006C0000D46F540A14000D0012129430843010611
:1006D0001B1B000ADB1D02D5002070BC7047DB0528
:1006E000181880180029F8DA401C4900F5D170BCB0
:1006F00040084000704710B5002B08DA0024401C69
:10070000614192185B411A4301D14008400010BD7D
:10071000F0B51FB482B005460C0003D0084601F0C6
:10072000D4F802E001F0D1F82030024600902146D2
:100730002846FFF78FFF049B059A04460F4618438F
:100740001143084314D0184610431BD00098402191
:100750000A1A18460599FFF709FD05460E46009A44
:1007600005990498FFF776FF084305D0012004E0BF
:100770002046394607B0F0BD0020C11705430E439F
:100780002C43374300990E986305401A7905E40A13
:1007900000220C43FD0A0A3002D500200146E9E799
:1007A0000105101969410C9C0D9D00196941FFF765
:1007B000A2FFDFE7F0B507460846584087B0C00FF4
:1007C000049048000E46590040084908BC1A884168
:1007D00005D2384631461E4617460B46024658009B
:1007E000400810434CD0300D039040055900400D97
:1007F000490D0590401A0290402872DA1803012131
:10080000000B09050843019004980092002805D0C8
:1008100001995242002088410092019002984021A3
:100820000A1A01990098FFF715FF05460C466B461A
:1008300007CB00F0E9F8C0197141039A0E0D0023AF
:10084000D71756401A467A40164344D0049A002AD5
:100850002DD0029A012A039A15DC1205C01A914183
:1008600001263605001C7141D20F059ED207009368
:10087000019202962A462346FFF74AFF07B0F0BDD1
:1008800038463146FAE71605224A0F46B218C01A12
:10089000B74101210905001C4F4100187F41114655
:1008A00018187941E20F10436D19644113E0E20713
:1008B0006D0815436408C2071443039A0126120504
:1008C000C01A91413605001C7141CE0740083043E3
:1008D0004908C01851412A462346FFF70CFFCDE7CF
:1008E000FFE7049801224000C117121A00238B4130
:1008F00004983146C417381AA141EEE730B40124F8
:10090000E407634030BC55E730B40124E40761409C
:1009100030BC4FE70000E0FFF8B50546480040084E
:100920000C46284304D06000184A400D904201DD77
:100930002846F8BD15493539884210DC88420BDB62
:10094000290D200308432903014305D0E00F104976
:10095000C00741180020F8BD00200146F8BD161A56
:100960004020821B28462146FFF774FE074600916F
:10097000284621463246FFF7F9FB3A46009BFFF72F
:10098000BAFE3246FFF766FEF8BD000033040000F1
:100990000000F03F10B5002904DB0124E4074042C9
:1009A0008C412146002B04DB1C460123DB0752420D
:1009B000A3418B4200D1824210BD000010B5002936
:1009C00004DB0124E40740428C412146002B04DB78
:1009D0001C460123DB075242A341994200D19042B9
:1009E00010BD0000064C0125064E05E0E36807CC6B
:1009F0002B430C3C98471034B442F7D3FFF75CFB11
:100A0000981F0008B81F000810B5202A06DBCB1776
:100A10000846203A1041C1170B4306E00B4613412C
:100A2000D0402024A21A91400843194610BD00006E
:100A300010B5322301220B490B4800F009FD322387
:100A400001220849084800F003FD3223012205492C
:100A5000054800F0FDFC322301220249024800F063
:100A6000F7FC10BD08000020E000002070B506462D
:100A700000F052F80025A8008419322301222146F3
:100A80000D4800F0E5FC611C322301220A4800F009
:100A9000DFFCA11C32230122074800F0D9FCE11C35
:100AA00032230122044800F0D3FC6D1C0A2DE2DB46
:100AB000FFF7BEFF70BD0000E00000201FB5E02280
:100AC00010436A461070080C1071080A10721173F6
:100AD00000F022F800243223012269460D4800F07C
:100AE000B7FC3223012201A90A4800F0B1FC3223ED
:100AF000012202A9074800F0ABFC3223012203A91E
:100B0000044800F0A5FC641C0A2CE4DBFFF790FF0E
:100B10001FBD0000E000002010B5322301220B4968
:100B20000B4800F095FC322301220849084800F0E8
:100B30008FFC322301220549054800F089FC32234D
:100B400001220249024800F083FC10BD040000208D
:100B5000E000002010B5012000F04EF8022000F067
:100B60004BF810BD10B50D4B5C78230000F0DCFE97
:100B7000061304070A0D101300F01EFF10BD00F04D
:100B80002FFF10BD00F040FF10BD00F051FF10BD61
:100B900000F08EFF10BD00F007FF10BD0000002028
:100BA00070B5044600F0DEF80546601C02D004482B
:100BB0000078241800F0D6F8401BA042FAD370BD8C
:100BC000D000002010B50B4C012806D002280CD113
:100BD00020780C280AD3002009E060780621401C08
:100BE000FFF77EFA61700120E07010BDC01C20701C
:100BF00010BD00000000002010B504494A690242FF
:100C000002D04861FFF7DEFF10BD00000004014084
:100C1000F8B500238DE001249C40A44622407DD0FD
:100C20004C68022C01D0122C0CD1DC08A40027182F
:100C30003C6A5D07ED0E0F26AE40B4430E69AE4030
:100C400026433E6205685E000324B4400F79A54345
:100C5000BF07BF0FB7402F4307604D68012D05D078
:100C6000022D03D0112D01D0122D0ED18568CF6831
:100C7000A543B7402F43876047686546AF430D796A
:100C8000ED06ED0F9D403D434560C568A5438C686A
:100C9000B4402C43C4604C68E40049D5284CA56995
:100CA00001263543A561A4699D0834400094254C74
:100CB000AD002F19BC689D072E0F0F25B540AC4322
:100CC0000925ED06A84201D100250FE01E4DA842DE
:100CD00001D101250AE01D4DA84201D1022505E000
:100CE0001B4DA84201D1032500E00525B540254351
:100CF000BD60184C25684E689543F60300D5154332
:100D0000256065684E689543B60300D51543656058
:100D1000A5684E689543F60202D500E008E0154349
:100D2000A560E5684E689543B60200D51543E560B9
:100D30005B1C0A681446DC4000D06CE7F8BD00007C
:100D40000010024000000140000400480008004874
:100D5000000C004800040140002A01D08161704766
:100D6000816270470148806870470000D000002011
:100D7000024881680278891881607047D00000209D
:100D800010B506480168102211430160002000F0F0
:100D900007F800F027F8002010BD000000200240F6
:100DA00070B504460D4D7D202978C000FFF798F9F5
:100DB00001460B480068FFF793F900F009FC002892
:100DC00009D1042C07D200222146401E00F02AF847
:100DD00000206C6070BD012070BD0000D0000020BC
:100DE000DC00002008B508488169012211438161B7
:100DF000816911400091C26901040A43C261C0695E
:100E00000840009008BD000000100240002805DBEB
:100E1000C106C90E012088400149086070470000E2
:100E200000E100E010B500F08DFD10BDF8B50F46F3
:100E3000060059D03A4D2868C007C00FB84209D201
:100E4000286840084000384328602868C007C00F61
:100E5000B84249D13068334C81070CD5400704D5DE
:100E6000606807210902084360606068F0218843D8
:100E7000B168084360603078C00726D070680128E8
:100E80000ED0216802280ED0890700292CDA61686B
:100E90008908890001436160FFF764FF00900DE05D
:100EA00021688903F1E78901EFE7FFF75BFF00990C
:100EB000411A1D48814201D90320F8BD60680C2108
:100EC0000840716889008842EFD12868C007C00FC8
:100ED000B8420BD928684008400038432860286889
:100EE000C007C00FB84201D00120F8BD30784007DC
:100EF00006D56068072109028843F16808436060ED
:100F000000F018F86168094A0906090F515CC840E9
:100F1000074908600020FFF743FF0020F8BD0000EC
:100F2000002002400010024088130000881F0008C3
:100F3000DC00002010B514A30FCB88B06C460FC4A2
:100F400015A30FCB0FC4184A51680C200B46034061
:100F50001648042B16D0082B14D18B021B0F6C469D
:100F6000E45CD26A04AB1207120F9A5CC90305D580
:100F700000231946FFF7CAF8214601E020460C4934
:100F800000F0BAFC08B010BD02030405060708090A
:100F90000A0B0C0D0E0F10100102030405060708C2
:100FA000090A0B0C0D0E0F100010024000127A00FF
:100FB00000093D00FEB5040070D02078DC4DC0076C
:100FC0004AD068680007800F012807D068680007CA
:100FD000800F022809D16868C00306D528688003FD
:100FE0003AD560680028E7D036E06168012914D05E
:100FF00001208004002901D0052914D02A6801218C
:1010000009048A432A6029688143296060680028AE
:1010100016D0FFF7A7FE06460EE028680121090456
:1010200008432860F2E7296801432960F5E7FFF7E4
:1010300099FE801B64286ED828688003F7D50BE0E2
:10104000FFF790FE064604E0FFF78CFE801B642845
:10105000F1D828688003F7D420780126800700287B
:101060003CDA68680007800F07D068680007800FC7
:10107000022809D16868C00306D42868800716D5FD
:10108000E06801280AD112E0E0680028286816D03C
:1010900030432860FFF766FE074605E043E1FFF7AF
:1010A00061FEC01B0228C6D828688007F7D52868CB
:1010B000F82188432169C900084328600EE04008F0
:1010C00040002860FFF74EFE074604E0FFF74AFEA7
:1010D000C01B0228AFD828688007F7D42078000703
:1010E00022D5E0690028686A0ED030436862FFF7B5
:1010F00039FE074604E0FFF735FEC01B02289AD8E8
:10110000686A8007F7D50FE0400840006862FFF783
:1011100029FE074605E09DE0FFF724FEC01B0228DC
:1011200089D8686A8007F7D4207804274007002808
:1011300060DA00200190E869C00008D4E969B806C7
:101140000143E961E969014001200091019079487A
:101150000168C90511D40168821511430160FFF7C8
:1011600001FE009005E0FFF7FDFD0099401A64289C
:1011700070D870480068C005F5D5A06801280AD06D
:10118000002801D0052810D0286A400840002862B5
:10119000286AB84301E0286A30432862A068002822
:1011A00012D0FFF7DFFD00900AE0286A384328627A
:1011B000F1E7FFF7D7FD0099411A5F48814249D80E
:1011C000286A8007F5D50DE0FFF7CCFD009006E01A
:1011D000FFF7C8FD0099411A574881423AD8286A5A
:1011E0008007F5D40198002804D0E96901200007A0
:1011F0008143E9612078C00635D5606901280CD0AB
:10120000401D686B23D038436863686B400840001A
:101210006863FFF7A7FD064622E0686B3843686302
:10122000686B30436863FFF79DFD064604E0FFF7F7
:1012300099FD801B02285BD8686B8007F7D5686B27
:10124000F8218843A169C900084368630BE0B843EB
:101250006863F4E74CE0FFF785FD801B022847D860
:10126000686B8007F7D4206A00285ED06968090798
:10127000890F022942D0012636060228286805D0A7
:10128000B0432860FFF76EFD044633E0B0432860AA
:10129000FFF768FD074604E0FFF764FDC01B022866
:1012A00026D828688001F7D4E86AE16A00090001BD
:1012B0000843E862616AA06A084369683D22120433
:1012C000914308436860286830432860FFF74AFD6F
:1012D000044604E0FFF746FD001B022808D82868F2
:1012E0008001F7D521E0FFF73DFD001B022801D961
:1012F0000320FEBD28688001F5D416E00128F8D04F
:101300006868E96A01221204636A02409A420AD1BB
:101310000907E26A090F914205D10F2189040840AB
:10132000A16A884201D00120FEBD0020FEBD000060
:10133000001002400070004088130000F8B504005F
:1013400007D0002625464035A662687F002802D0D7
:1013500005E00120F8BD2E77204600F04BF802236F
:101360006B77206801684022914301600721E068A3
:101370000902884201D9002201E0012212030F274D
:101380003F02B84202D0884200D0A662276B002FED
:1013900005D1884201D9236301E001202063A168BF
:1013A0006068636908432169194308430123A169FF
:1013B0005B0219400843E1690843216A0843A16AB6
:1013C000084321680860616B606AA36908431B0CCD
:1013D0000427E1683B4019430843216810434860F3
:1013E0002068C1697A029143C1612666012068774D
:1013F0000020F8BD10B586B0044614216846FEF7FB
:10140000CDFE1149206888421CD1104882698114A0
:101410000A43826182690A400592426949010A438E
:101420004261406908400590A02000900220019090
:101430000021032003900291049109206946C0060F
:10144000FFF7E6FB06B010BD00300140001002407F
:10145000FFB5054604464035287F002781B0164673
:10146000012809D001202877FFF77CFC0090687FD5
:10147000012804D00227A5E0022005B0F0BD0298A3
:10148000002870D0002E6ED00320687700202066E0
:101490000299A163A687E6872064A880E88020657A
:1014A000E0640121A068C903884205D12068016871
:1014B000012292031143016020680168490603D4A8
:1014C00001684022114301600720E1680002814267
:1014D000606826D9002801D0012E1ED1A06B21689A
:1014E0000088C86006E020688168890709D5A16B7B
:1014F0000988C160A06B801CA063E08F401EE0875C
:101500000BE0FFF72FFC0099411A0498814202D3A7
:10151000401C02D04CE000284AD0E08F0028E2D1E5
:1015200039E0002801D0012E32D1E08F0128A06BD4
:1015300003D921680088C8600FE02168007808732B
:1015400014E0E08724E020688168890714D5E18FE2
:101550000129A16B08D90988C160A06B801CA06318
:10156000E08F801EEDE72CE009780173A06B401C32
:10157000A063E08F401EE4E7FFF7F4FB0099411AF7
:101580000498814202D3401C02D011E000280FD001
:10159000E08F0028D7D12046009A049900F0BEF8C9
:1015A000002801D020202066A068002802D005E095
:1015B000032707E02068C16880680090206E00283B
:1015C00000D001270120687700202877384654E7AB
:1015D000094910B5401E884201D9012010BD074CB1
:1015E00060610321081F00F0ADF90020A061072011
:1015F0002061002010BD0000FFFFFF0000E000E0C0
:10160000F8B50E46154600240321FEF769FDE021DA
:10161000401C0843C7B260002018295C491C2954AB
:1016200040190A4900F086FAA10008487754027868
:10163000891952084A704278641C52088A7080786E
:101640004008C8700A2CE6DBF8BD00000E00002040
:10165000FEE7000030B587B014216846FEF79EFD16
:101660001A484269012189050A43426142690A40D8
:101670000592426949110A434261406909250840BF
:10168000ED060590002240212846FFF765FB032068
:1016900000900F4800240190694602942846FFF705
:1016A000B7FA40200090012001900294694603940B
:1016B0002846FFF7ADFA002211460520FFF7B2FBDE
:1016C0000520FFF7A3FB07B030BD0000001002406B
:1016D0000000211010B50F480D490160FF210531B0
:1016E000416000210722816012020161C260012273
:1016F000416152028261016210224162C2618162D3
:101700000722C262016308214163FFF717FE10BD83
:1017100000300140E000002070477047F8B50F46E8
:101720000B4615460092032104460022C90200F030
:101730001BF82026002812D13B460022802120469B
:10174000009500F059F8002809D103213B460022FA
:1017500049022046009500F007F8002803D0206ECB
:10176000304320660320F8BDF8B51D4617460E46E7
:10177000044610E0032149028E4202D1002F00D11D
:10178000007B681C07D0FFF7EDFA0699401AA842C3
:1017900008D2002D06D0206881683140B942E9D1D5
:1017A0000020F8BD20684168E022914341606068F4
:1017B000C11FFD390CD10121A068C903884202D0A4
:1017C0004911884204D12068016840229143016098
:1017D0000120A16A4003814207D121680A6882433F
:1017E0000A6021680A6802430A6001204034607779
:1017F000002020770320F8BDF8B51D4617460E4699
:10180000044609E0681C07D0FFF7ACFA0699401AB5
:10181000A8420BD2002D09D0206881683046884349
:101820002ED00020B842EDD10020F8BD20684168DC
:10183000E022914341606068C11FFD390CD1012154
:10184000A068C903884202D04911884204D12068A7
:1018500001684022914301600120A16A4003814256
:1018600007D121680A6882430A6021680A68024336
:101870000A60012040346077002020770320F8BD03
:101880000120CFE7704710B5FFF772FA10BD30B5F1
:1018900091B030216846FEF781FC002401250D94AB
:1018A00000950C940E940F94684601950894FFF7E8
:1018B00081FB07200C900E9400210D950F940CA82D
:1018C000FFF7B4FA11B030BD70472021020C01D0EF
:1018D00010211046020A01D010460839020901D031
:1018E0001046091F820801D01046891E420801D007
:1018F000881E7047081A7047F8B5040C8BB226464C
:1019000082B25E430D0C1046370C584336048019E2
:101910000021794116466E43370C3604801979410F
:1019200026466E438919F8BD30B47446641E257886
:10193000641CAB4200D21D46635D5B00E31830BC03
:10194000184700008307FF22DB0E9A408907090E23
:101950009940002808DB830809489B001B18186879
:1019600090430843186070470007000F0838830849
:1019700004489B001B18D86990430843D8617047FE
:1019800000E400E000ED00E002E008C8121F08C11A
:10199000002AFAD170477047002001E001C1121FF0
:1019A000002AFBD17047000000B50846014900F04D
:1019B000E5F900BD1100002010B513460C460028C3
:1019C00004D00649204600F0D9F910BD034A194653
:1019D0007832204600F08AF810BD0000390000205F
:1019E00010B513460C46002804D00649204600F0E6
:1019F000C5F910BD034A19465A32204600F076F860
:101A000010BD00006100002010B513460C460028F0
:101A100004D00649204600F0B1F910BD034A19462A
:101A20003C32204600F062F810BD00008900002022
:101A3000F0B51E4E00258C46002805D0711D60466D
:101A400000F09CF93570F0BD3078782801D93570F8
:101A500009E0502801D9032004E0282801D90220F8
:101A600000E001207070114800244778E02101E077
:101A7000002B0AD10D48A3002D30181800789E18AD
:101A800060440843307001236F20BB4201D1F05401
:101A900000E0F5545B1C042BEADB641C0A2CE9DB38
:101AA00002480178491C0170F0BD00000C000020C4
:101AB000F8B516468C4600280FD000210A4C7F222C
:101AC000FF2719200B46434348000D18281963557A
:101AD0004270491C87700A29F3DB034A314660468D
:101AE000FFF78EFDF8BD00006C010020F0B500246A
:101AF000054684461035A700CB5DD806C00EA84227
:101B000003D35B1ECB55002006E06646761CB04230
:101B100004D85B1CCB550120105506E0105D002851
:101B200001D05B1C00E05B1ECB55641C0A2CE2DB81
:101B3000F0BD0000F0B5054687B00C460078FEF712
:101B4000FFFC0022874BFEF771FC0022864BFEF75C
:101B500005FCFEF759FD0146844800F0BDF9014639
:101B6000002000F0AFF902906878FEF7E2FC804EAA
:101B70000146304600F0B0F90146002000F0A2F91D
:101B80000746A878FEF7D5FC0146304600F0A4F9D8
:101B90000146002000F096F9054631463846FEF72A
:101BA0009EFB019031462846FEF799FB0090019874
:101BB000704D4000000E3DD06F490298FEF78FFB3C
:101BC0000646FEF70DFD00F0F3F8FEF7C7FC0746EA
:101BD000FEF7A4FC3146FEF741FB06467F20C00518
:101BE0000199FEF737FB0099FEF73CFB0590314663
:101BF0000198FEF737FB7F21C905FEF72FFB0099FF
:101C0000FEF730FB06907F203146C005FEF722FB31
:101C10000199FEF727FB7F21C905FEF71FFB0099FD
:101C2000FEF720FB06463B00FFF77EFE0513213A38
:101C30005361830029460098FEF714FBFEF7D0FCA1
:101C400000F054F9FEF7AEFC20706070A07007B091
:101C5000F0BD29460098FEF705FBFEF7C1FC00F039
:101C600045F9FEF79FFCA070294630460CE0294656
:101C70000698FEF7F7FAFEF7B3FC00F037F9FEF727
:101C800091FCA07029460098FEF7ECFAFEF7A8FC3C
:101C900000F02CF9FEF786FC6070294605983EE0BE
:101CA00029460598FEF7DEFAFEF79AFC00F01EF9C9
:101CB000FEF778FCA07029460098FEF7D3FAFEF7ED
:101CC0008FFC00F013F9FEF76DFC6070294630467A
:101CD00025E029460598FEF7C5FAFEF781FC00F0DD
:101CE00005F9FEF75FFCA070294606980CE029462E
:101CF0003046FEF7B7FAFEF773FC00F0F7F8FEF790
:101D000051FCA07029460598FEF7ACFAFEF768FC76
:101D100000F0ECF8FEF746FC607029460098FEF7EC
:101D2000A1FAFEF75DFC00F0E1F8FEF73BFC207045
:101D30008DE729460098FEF795FAFEF751FC00F072
:101D4000D5F8FEF72FFCA07029460598FEF78AFA11
:101D5000FEF746FC00F0CAF8FEF724FC6070294646
:101D60000698DCE700E06F40007076400000B44366
:101D70000000C84200007F4300007042F0B5944666
:101D800000240A46E027A1008E186346CD1801E022
:101D9000002B04D131780918394329700123F15CF3
:101DA000E9545B1C042BF3DB641C0A2CEBDBF0BD59
:101DB000F8B54A002B4B520DD6182B4A0C46054657
:101DC000142E2BDA002E12DA284BFEF7F3FC002239
:101DD0001346FEF7F3FD40D2002C02DB002425461B
:101DE0003BE060004008284337D0214C14E0214FED
:101DF0000B46F7403B402B4331D01C4BFEF7DAFC3F
:101E000000221346FEF7DAFD27D2002C03DA012068
:101E10000005F0400419BC4300251EE0332E1EDCF3
:101E200033460027143BFF43DF40384217D00F4BA7
:101E3000FEF76AFD00221346FEF7C0FD0DD2002C0E
:101E40000ADA142E0CD03420811B0120884040195E
:101E5000A84200D2641C0546BD4321462846F8BD71
:101E6000641CF9E701FCFFFF9C7500883CE4377EA9
:101E70000000F0BFFFFF0F00FEF782FFFFF707FD36
:101E8000FFF7E8FBFFF726FC00211F20FEF716FEF8
:101E9000FF20F530FEF784FE084C0025084A217823
:101EA000E078FEF75FFE0648FEF7E0FDE57064208F
:101EB000FEF776FEA078401CA070EFE7000000203F
:101EC0004401002070B50C460546FEF7B9FB01D26F
:101ED000284670BD204670BD70B50C460546FEF71D
:101EE000AFFB01D2204670BD284670BDF0B513B4DB
:101EF00006460199FEF710FD04460D4602460B46C4
:101F000030460199FEF7FAFC064601981B4B0F4636
:101F100000280CDA00223046FEF73CFD0CD90022E6
:101F2000174B30463946FEF749FD1DD214E000221A
:101F30003046FEF72FFD08D20022124B20462946DC
:101F4000FEF7DCFC04460D460EE000220C4B30464A
:101F50003946FEF733FD07D800220A4B20462946B2
:101F6000FEF728FC04460D46019A69004908D20F85
:101F7000D2072046114303B0F0BD00000000E0BFCF
:101F80000000E03F0000F03F000000000000000003
:101F90000102030406070809B81F0008000000201A
:101FA000E00000008819000898200008E0000020E8
:101FB000B0040000981900080000000000000000B4
:101FC000FFFFFFFF01000000000100006F01006F34
:101FD0006F0100006F01006F6F0100006F01006F63
:101FE0006F0100006F01006F6F0100006F01006F53
:101FF0006F0100003F0100003F0100003F010000B1
:102000003F0100003F0100003F0100003F010000D0
:102010003F0100003F0100003F01003F3F01003F42
:102020003F01003F3F01003F3F01003F3F01003FB4
:102030003F01003F3F01003F3F01003F3F01003FA4
:102040003F0100003F01003F3F0100003F01003F12
:102050003F0100003F01003F3F0100003F01003F02
:102060003F0100003F01003F3F010101010101016B
:102070000101010101010101010101010101010150
:102080000101010101010100010000000400000044
:082090000000000000127A00BC
:04000005080000B13E
:00000001FF
